:1000000002308A00932A0000FF00030E8301A10042
:100010000A08A0008A010408A2007708A300780853
:10002000A4007908A5007A08A600831383128C30F7
:100030008400801E1D288C1A2E2822088400230884
:10004000F7002408F8002508F9002608FA0020081F
:100050008A00210E8300FF0E7F0E09008A110A120A
:10006000C1298E30F7004908F8004808F900FA0164
:10007000F808031D45287908F800F9010830F7024F
:10008000F808031D4528F7014D280310F81B4C28DC
:10009000F90DF80DF7034528F81308004C0803196B
:1000A000BE28D40050080319BE28D40703185F28BF
:1000B0007F30D402031CBE280319BE286328813078
:1000C000D4070318BE285408F700F801F901FA0113
:1000D0004D08D800D8174E08D7004F08D600183062
:1000E000D400D501561C8C285308FA07031C7E281F
:1000F000F90A031D7E28F80A0319D5175208F907D3
:10010000031C8528F80A0319D5175108CE00CE170D
:100110004E08F8070318D517D50DF80CF90CFA0C92
:10012000D80CD70CD60C0310D40B71280130F7076C
:100130000318BE28F81BA328D80DFA0DF90DF80DE9
:10014000F7030319BE28D81FB428FA0A031DB428E0
:10015000F90A031DB428F80A031DB428F80CF90C99
:10016000FA0CF70A0319BE284D08D5005108D50628
:10017000D51FBC28F817C228F813C228F701F801C8
:10018000F901FA0108004C0803198829D800500821
:1001900003198829D802031CD2287F30D8070318F6
:1001A0008829D8288130D802031C88290319882976
:1001B0005808F700F801F901FA01D7014D08D600F7
:1001C000D6174E08D5004F08D4001930D800530870
:1001D000D4020318FB280130D5020318FB28D602ED
:1001E0000318FB28D7020318FB28D70AD60AD50A1A
:1001F0005308D4072D295208D502031816290130B7
:10020000D60203181629D70203181629D70AD60AC8
:100210005208D5075308D407031C2D29D50A031DFE
:100220002D29D60A031D2D29D70A2D2951088038DA
:10023000D60203182C290130D70203182C29D70A1B
:1002400051088038D6075208D507031C0A29D60A58
:10025000031D0A29D70A0A297A14D80B30293B2909
:100260000310D40DD50DD60DD70D0310FA0DF90DD1
:10027000F80DD90DE728591C43290310F80CF90C87
:10028000FA0CD90C4629F70303198829D91B6F29C1
:100290000310D40DD50DD60DD70D5308D402031875
:1002A0005B290130D50203185B29D60203185B29AC
:1002B000D702031C7E295208D50203186629013093
:1002C000D60203186629D702031C7E2951088038FC
:1002D000D60203186F290130D702031C7E29FA0ABF
:1002E000031D7E29F90A031D7E29F80A031D7E29B4
:1002F000F70A03198829F80CF90CFA0C4D08D800F4
:100300005108D806D81F8629F8178C29F8138C298C
:10031000F701F801F901FA0108008E30F7004808EA
:10032000F7024908F9004A08F800F917F708031915
:10033000A4290310F908031DA029F8080319A4290A
:10034000F90CF80CF70B9929C91FAB29F809F90921
:10035000F80A0319F90A08004A08F80149020318C3
:10036000B4294908F700C029F7010830CB00C90DAE
:10037000F70D4A0877020318F700F80DCB0BB729E1
:1003800008009F149F18C22983161E088312AA0012
:10039000C9012A08C80031207A08CF007908CE00A8
:1003A0007808CD007708CC003330D300D20023305A
:1003B000D1008130D0004E207708C8007808C900ED
:1003C0007908CA007A08CB00CF007908CE007808F7
:1003D000CD007708CC00D301D2014830D100853060
:1003E000D0004E207708C8007808C9007908CA00F4
:1003F0007A08CB00CF007908CE007808CD007708C6
:10040000CC00D301C030D2007F30D1008830D00082
:10041000C3207A08B4007908B3007808B2007708DE
:10042000B1002330AB003530AC003408CB003308CA
:10043000CA003208C9003108C8008D217808C900F7
:100440006430CA00AC217708C9000A30CA00AC2168
:1004500030307807AD003408CB003308CA003208CA
:10046000C9003108C8008D217808C9006430CA006D
:10047000AC217708C9000A30CA00AC2130307707B8
:10048000AE002E30AF003030B0008C128A110A124C
:100490001D281F179F1783169F1783121F14B60856
:1004A000031D662A831603170908C0398900031340
:1004B0001F129F120130031788000030F8008312CA
:1004C00003131F08C33978049F007B2A360B7B2A4D
:1004D000831603170908C039890003131F129F12DE
:1004E0000230031788000430F800831203131F083A
:1004F000C33978049F008A110A12B92A3730840060
:10050000831300080319922A0130F800F701F70B52
:10051000872AF80B862A4A30F700F70B8D2A902A93
:10052000800B842A0800840183131F3083058316FF
:1005300003178711193003139900A63098009030E3
:1005400083129800AA01831603170908C03989008D
:1005500003131F129F1200300317880083128701B4
:10056000880189010313A801A901B5010130B60072
:10057000492AC0308B0483168C1683129F149F184F
:10058000BF2A83161E088312AA00A7018B1BA71778
:100590008B13C9012A08C8003120A71B8B17A7019C
:1005A0008B1BA7178B137A08CF007908CE00780829
:1005B000CD007708CC003330D300D2002330D100F7
:1005C0008130D0004E20A71B8B177708B600780823
:1005D000B7007908B8007A08B900A7018B1BA717E4
:1005E0008B137A08CF007908CE007808CD00770801
:1005F000CC00D301D2014830D1008530D0004E204C
:10060000A71B8B177708B6007808B7007908B800E1
:100610007A08B900A7018B1BA7178B137A08CF00A4
:100620007908CE007808CD007708CC00D301C0301F
:10063000D2007F30D1008830D000C320A71B8B1799
:100640007A08B4007908B3007808B2007708B100DE
:10065000A7018B1BA7178B133408CB003308CA00E4
:100660003208C9003108C8008D21A71B8B17A701CC
:100670008B1BA7178B137808C9006430CA00AC2104
:10068000A71B8B17A7018B1BA7178B137708C90014
:100690000A30CA00AC21A71B8B1730307807AB009B
:1006A000A7018B1BA7178B133408CB003308CA0094
:1006B0003208C9003108C8008D21A71B8B17A7017C
:1006C0008B1BA7178B137808C9006430CA00AC21B4
:1006D000A71B8B17A7018B1BA7178B137708C900C4
:1006E0000A30CA00AC21A71B8B1730307707AC004B
:1006F0002E30AD003030AE000D30AF000A30B0000B
:1007000023300C1E812B99000130B7007E2231303E
:100710000C1E882B99000130B7007E222B080C1E7E
:100720008F2B99000130B7007E222C080C1E962BCF
:1007300099000130B7007E222D080C1E9D2B9900D8
:100740000130B7007E222E080C1EA42B9900013028
:10075000B7007E222F080C1EAB2B99000130B7008A
:100760007E2230080C1EB22B99000130B7007E2289
:100770000230B600FA30B7007E22B60BBA2B023038
:10078000B600FA30B7007E22B60BC12B0230B6009D
:10079000FA30B7007E22B60BC82B0230B600FA3012
:1007A000B7007E22B60BCF2B831688018312350843
:0C07B00088003508FF3CB500BE2A63003D
:04400E00E72FFF3F5A
:00000001FF
;PIC16F887
;CRC=D3D8  CREATED="25-May-14 16:53"
