:1000000002308A002A2A0000FF00030E8301A100AB
:100010000A08A0008A010408A2007708A300780853
:10002000A4007908A5007A08A600831383128C30F7
:100030008400801E1D288C1A2E2822088400230884
:10004000F7002408F8002508F9002608FA0020081F
:100050008A00210E8300FF0E7F0E09008A110A120A
:1000600046284730840083130008031945280130CF
:10007000F800F701F70B3A28F80B39284A30F70057
:10008000F70B40284328800B372808008316880187
:10009000FF30831288000230C600FA30C7003120DA
:1000A000C60B4D2883168801831288010230C600D2
:1000B000FA30C7003120C60B58288C128A110A1258
:1000C0001D281F179F1783169F1783121F14B4082C
:1000D000031D7E28831603170908C03989000313FE
:1000E0001F129F120130031788000030F80083129E
:1000F00003131F08C33978049F009328340B9328F7
:10010000831603170908C039890003131F129F12B1
:100110000230031788000430F800831203131F080D
:10012000C33978049F008A110A12502A8E30F700D2
:100130003508F8003408F900FA01F808031DAA2868
:100140007908F800F9010830F702F808031DAA2819
:10015000F701B2280310F81BB128F90DF80DF703C9
:10016000AA28F8138A110A125B2A380803192529CC
:10017000C0003C0803192529C0070318C6287F3092
:10018000C002031C252903192529CA288130C0076C
:10019000031825294008F700F801F901FA01390888
:1001A000C400C4173A08C3003B08C2001830C0009E
:1001B000C101421CF3283F08FA07031CE528F90A8D
:1001C000031DE528F80A0319C1173E08F907031CA7
:1001D000EC28F80A0319C1173D08BA00BA173A0803
:1001E000F8070318C117C10DF80CF90CFA0CC40C70
:1001F000C30CC20C0310C00BD8280130F70703183A
:100200002529F81B0A29C40DFA0DF90DF80DF7037D
:1002100003192529C41F1B29FA0A031D1B29F90AE2
:10022000031D1B29F80A031D1B29F80CF90CFA0CF5
:10023000F70A031925293908C1003D08C106C11F65
:100240002329F8172929F8132929F701F801F901B9
:10025000FA01080038080319EF29C4003C08031903
:10026000EF29C402031C39297F30C4070318EF2982
:100270003F298130C402031CEF290319EF294408E8
:10028000F700F801F901FA01C3013908C200C217E9
:100290003A08C1003B08C0001930C4003F08C00242
:1002A000031862290130C10203186229C20203182F
:1002B0006229C30203186229C30AC20AC10A3F089D
:1002C000C00794293E08C10203187D290130C202EB
:1002D00003187D29C30203187D29C30AC20A3E08F8
:1002E000C1073F08C007031C9429C10A031D9429B4
:1002F000C20A031D9429C30A94293D088038C2020A
:10030000031893290130C30203189329C30A3D0837
:100310008038C2073E08C107031C7129C20A031DA9
:100320007129C30A71297A14C40B9729A2290310D1
:10033000C00DC10DC20DC30D0310FA0DF90DF80D5E
:10034000C50D4E29451CAA290310F80CF90CFA0C0E
:10035000C50CAD29F7030319EF29C51BD6290310D6
:10036000C00DC10DC20DC30D3F08C0020318C22944
:100370000130C1020318C229C2020318C229C302F4
:10038000031CE5293E08C1020318CD290130C20231
:100390000318CD29C302031CE5293D088038C20299
:1003A0000318D6290130C302031CE529FA0A031DEC
:1003B000E529F90A031DE529F80A031DE529F70ACD
:1003C0000319EF29F80CF90CFA0C3908C4003D08A0
:1003D000C406C41FED29F817F329F813F329F70110
:1003E000F801F901FA018A110A12952A8E30F700F4
:1003F0003408F7023508F9003608F800F917F7084D
:1004000003190D2A0310F908031D092AF808031916
:100410000D2AF90CF80CF70B022AB51F142AF8095B
:10042000F909F80A0319F90A08003608F801350233
:1004300003181D2A3508F700292AF7010830B700EC
:10044000B50DF70D360877020318F700F80DB70B56
:10045000202A0800840183131F30830583160317A5
:100460008711193003139900A63098009030831239
:100470009800AA01831603170908C03989000313DD
:100480001F129F1200300317880083128701880112
:1004900089010313A801A901B3010130B400612847
:1004A0009F149F18512A83161E088312AA00B501B3
:1004B0002A08B40096287A08BB007908BA007808A0
:1004C000B9007708B800D230BF00BE01BD0181304D
:1004D000BC00B5207708B4007808B5007908B600EC
:1004E0007A08B700BB007908BA007808B900770825
:1004F000B800BF01BE014830BD008530BC00B5204A
:100500007708B4007808B5007908B6007A08B70013
:10051000BB007908BA007808B9007708B800BF01B5
:10052000BE01BD018930BC002A297A08B2007908D1
:10053000B1007808B0007708AF002330AB0031304D
:10054000AC003208B7003108B6003008B5002F08FB
:10055000B400F6217808B5006430B600152277089B
:10056000B5000A30B600152230307807AD003208E9
:10057000B7003108B6003008B5002F08B400F621E6
:100580007808B5006430B60015227708B5000A3047
:10059000B600152230307707AE002B080C1ECE2A8D
:1005A00099002C080C1ED22A99002D080C1ED62A60
:1005B0009900A7018B1BA7178B130130C7003120AF
:1005C000A71B8B172E080C1EE32A9900A7018B1B73
:1005D000A7178B130130C7003120A71B8B170230E0
:1005E000B400A7018B1BA7178B13FA30C70031206B
:1005F000A71B8B17B40BF12A0230B400A7018B1B89
:10060000A7178B13FA30C7003120A71B8B17B40B29
:10061000FE2A831688018312330888003308FF3CC2
:06062000B300502A630044
:04400E00E72FFF3F5A
:00000001FF
;PIC16F887
;CRC=9590  CREATED="09-Jun-14 20:38"
